:020000040800F2
:1000000040120020DD0900080F350008C90900086A
:10001000C9090008C9090008C90900080000000052
:10002000000000000000000000000000B50A000809
:10003000C909000800000000510A0008DD1A000884
:100040007D0C00087D0C00087D0C00087D0C00086C
:100050007D0C00087D0C00087D0C00087D0C00085C
:100060007D0C00087D0C00087D0C00087D0C00084C
:100070007D0C00087D0C00087D0C00087D0C00083C
:100080007D0C00087D0C00087D0C00087D0C00082C
:100090007D0C00087D0C00087D0C00087D0C00081C
:1000A0007D0C00087D0C00087D0C00087D0C00080C
:1000B0007D0C00087D0C00087D0C00087D0C0008FC
:1000C0007D0C00087D0C00087D0C00087D0C0008EC
:1000D0007D0C00087D0C00087D0C00087D0C0008DC
:1000E0007D0C00087D0C00087D0C00087D0C0008CC
:1000F0007D0C00087D0C00087D0C00087D0C0008BC
:100100007D0C00087D0C00087D0C00087D0C0008AB
:100110007D0C00087D0C00087D0C00087D0C00089B
:100120007D0C00087D0C00087D0C00087D0C00088B
:100130007D0C00087D0C00087D0C00087D0C00087B
:100140007D0C00087D0C00087D0C00087D0C00086B
:100150007D0C00087D0C00087D0C00087D0C00085B
:100160007D0C00087D0C00087D0C00087D0C00084B
:100170007D0C00087D0C00087D0C00087D0C00083B
:080180007D0C00087D0C000855
:1001880010B584B00023029303932649264803F050
:100198009DF9264804F0FBFA10B9002004B010BD00
:1001A800234804F0F4FA0028F7D0214883681B6834
:1001B800002198470028F0DB1E4803F087F94FF428
:1001C8007A7415E04FF47A7421461B4803F07EF9DF
:1001D800174883681B68214698476B4693E80300D5
:1001E80004AB03E903004FF47A70002102F0BEFA71
:1001F8000E488368DB68422198470028CDDB0B480E
:1002080083681B696A460F2198470028C5DB029B53
:10021800002BE2D1009B012BDFD1002CD2D0643C13
:10022800D2E700BF7052000878520008C04E00089C
:10023800A04E000898520008C852000808B5024BA2
:100248001B68984708BD00BF00000020014B1860DC
:10025800704700BF0000002000B585B00A460023A3
:10026800009301930293039302238DF80230044B09
:1002780001930146684602F055FE05B05DF804FB9F
:100288004502000880B505460E461746984602F016
:10029800CDFA034604F0EEFC0446DFF8189049F85E
:1002A8000030424639463046A84754F8090000F065
:1002B800B1FB00BF08000000034A536823F00203A3
:1002C80053600020704700BF002004E0EFF3118264
:1002D800102383F31288BFF36F8F0D4B1B686BB924
:1002E8000C490B6843F480730B6000E033B9094B89
:1002F8001B6813F48073F9D00123F7E704490B68EE
:1003080001330B6082F31188BFF36F8F704700BF12
:10031800E402002000700040EFF31183102282F302
:100328001288BFF36F8F124A12687AB9114A0121F5
:10033800BFF35B8F52E8000F002804D142E8001C8D
:10034800BCF1000FF6D1BFF35B8F05E0012A08D09E
:1003580007490A68013A0A6083F31188BFF36F8F6F
:10036800704705490A6822F480720A60F0E700BF06
:10037800E4020020E002002000700040084B1A68E8
:1003880042F400721A601A6842F480621A601A68AD
:1003980042F480721A60034B034A1A60704700BF28
:1003A800002002403C00002000093D00014B036092
:1003B80000207047FC52000808B50348034A121A87
:1003C800002103F092F808BD680000206C040020AA
:1003D80008B50648064A121A064903F08AF806487C
:1003E800064A121A064903F084F808BD00000020E6
:1003F80068000020885A0008000000200000002043
:10040800885A000810B5044683684268016809489C
:1004180003F05CF863692269E168074803F056F85D
:10042800E169064803F052F8A169054803F04EF85F
:1004380010BD00BFFC5200082C5300085C53000894
:100448006C53000838B504460D4611B10846FFF74D
:10045800D9FF012C04D02946204601F011FD38BDF2
:10046800EFF305811039024803F030F8F3E700BFD5
:100478009C53000830BFFFF7FDBF00BF38B50446E6
:10048800054D2A46054904F06CFB054A0021601910
:1004980004F075FB38BD00BF000000007052000872
:1004A8000400000070B50646064D074B1D444C1B62
:1004B8002046FFF7E3FF083CC6F8A44005F1080012
:1004C80070BD00BF0000000004000000054B5A6921
:1004D8009B689A4204D0044A536843F0805353609F
:1004E800704700BF3404002000ED00E081690D4B27
:1004F8005A6942F480725A61BFF34F8FBFF36F8F0E
:1005080031F8021C5A6922F480725A61BFF34F8F86
:10051800BFF36F8F4DF60273994201D000207047E8
:100528000120704700ED00E04FF0000C83F800C098
:1005380002F07F4CBCF17F4F12D102F00C0CBCF1E1
:10054800080F04D012F0080F07D00846704708B506
:10055800044802F0BBFF002008BD01221A70704752
:1005680000207047B0530008F8B505460F461446FA
:100578002F4802F0ABFF2F4B9B6A13F4805F25D105
:1005880016262C4B9B6A13F4006F24D1294B9B6AC7
:1005980013F4007F24D1274B9B6A13F4806F37D163
:1005A800244B9B6A13F4807F37D1224B9B6A13F448
:1005B800005F37D11F4A936A43F47F439362012156
:1005C800284602F0A6FF20703046F8BD1A4802F00F
:1005D8007DFF1726D5E7194802F078FF1826D5E7DA
:1005E800174802F073FF134B996B9B6A13F4004F83
:1005F80001D11926CFE7134802F068FF37B10D4A39
:10060800936A23F4004393621926C4E71926C2E7C4
:100618000D4802F05BFF1A26C2E70C4802F056FFAD
:100628001B26C7E70A4802F051FF1C26C2E700BF95
:10063800DC53000800ED00E0F453000808540008FB
:100648001C54000838540008505400086C54000822
:100658008854000808B5244802F038FF234B9B6AE9
:1006680013F0007F21D11D20204B9B6A13F0807F5F
:1006780020D11E4B9B6A13F4002F20D11B4B9B6A81
:1006880013F4802F20D1194B9B6A13F4003F20D11B
:10069800164B9B6A13F4803F20D1144A936A6FEA81
:1006A80003436FEA1343936208BD114802F00EFF3B
:1006B8001E20D9E70F4802F009FF1F20D9E70E488E
:1006C80002F004FF2120D9E70C4802F0FFFE2220A7
:1006D800D9E70B4802F0FAFE2320D9E7094802F0CF
:1006E800F5FE2420D9E700BFB854000800ED00E06B
:1006F800D4540008E854000804550008245500089C
:100708004C5500086855000808B500230B700248CE
:1007180002F0DCFE08BD00BF9455000808B50A4683
:100728000F2905DC0349103A034802F0CFFE08BD43
:100738000249F8E7BC550008F0550008D4550008F0
:100748002DE9F04104460F4615463F4802F0BEFE2B
:100758003E4B9B6A13F0100F3CD110263B4B9B6A13
:1007680013F0080F3BD1394B9B6A13F0020F3BD1B2
:100778006FF01508354B9B6A13F0010F50D1334BBE
:100788009B6A13F0200F50D1304B9B6A13F0100F67
:1007980004D12E4B9B6A13F0020F04D02B4B5B68DD
:1007A80013F4006F46D1294B9B6A13F0200F04D035
:1007B800264A536A23F400535362244A936A43F047
:1007C800FF0393620121204602F0A3FE2870304601
:1007D800BDE8F0811E4802F079FE1126BEE71D48EB
:1007E80002F074FE1226BEE71B4802F06FFE174B9C
:1007F800D3F834809B6A13F0800F03D16FF015088B
:100808001326B7E74146154802F060FE37B10F4A94
:10081800936A23F0800393621326ABE71326A9E7B4
:100828000F4802F053FE1426A9E70E4802F04EFEC8
:100838001526A9E72146404600F0B8F90028B2D0AD
:1008480080F309880226AEE70456000800ED00E0B0
:100858001C56000808540008505600086C5600083A
:10086800845600088854000870B506460D46264888
:1008780002F02CFE00232B70244BDC6A14F00204D7
:100888000AD1224BDB6A002B0BDB204BDC6A14F00D
:1008980080440AD1204670BD1D4802F017FE00248E
:1008A800F8E71C4802F012FEF4E71B4802F00EFEBF
:1008B8003046FFF71BFE98B9144B9B6A13F0FF0FE5
:1008C80014D1124B9C6A14F47F4416D10F4B9B6AC7
:1008D800B3F5803FDED33046FFF7BCFE0446D9E7C8
:1008E80031680E4802F0F2FD3468D3E72A46012148
:1008F8003046FFF725FF0446CCE72A46012130465B
:10090800FFF732FE0446C5E7A456000800ED00E0F4
:10091800BC560008E0560008F056000810570008BA
:1009280030B58BB01F4B5D68C5F30805002383F312
:100938001188BFF36F8F0DF12603FFF7F5FD04460D
:100948000DF12702294602F0E6FD9DF827300BB18C
:100958000BB030BD05460DF1040C20686168A26833
:10096800E368ACE80F0020696169A269E369ACE853
:100978000F009DF826304BB1089BC3F308025AB903
:100988006FEA53236FEA4323089305E0089B23F497
:10099800FF7323F00103089301A92846FFF752FDCE
:1009A800D6E700BF00ED00E0044B5A6942F01002A0
:1009B8005A615A6922F008025A61704700ED00E056
:1009C800EFF30880EFF3098101B57246FFF7A8FF3E
:1009D80001BD00BF0C4880F3088800200B4908704F
:1009E800102080F311880A484FF40461401880F3FE
:1009F8000988EFF314800221084380F31488BFF3B9
:100A08006F8F00F095F80000401200206904002064
:100A18008004002008B50A4B9B68834202D001F08D
:100A28000BFF08BDEFF30583002BF8D0054B5A6880
:100A380042F080525A605A6A22F400425A62EEE743
:100A48003404002000ED00E015498A684FF03000BA
:100A58001044EFF3098C80E8F01F102080F312880F
:100A6800BFF36F8F0F4F4FF000664A698A603E6090
:100A7800D2F8A4000C4C2060D2F8A8000023C2F8D9
:100A8800A83080F3118804B5104600F011F9BDE8CC
:100A9800044002F1300090E8F01F8CF30988704799
:100AA8003404002004ED00E0E80200201EF0040FEA
:100AB8000CBFEFF30880EFF30980816911F8021C7D
:100AC8000229FFD001B5724602F017FD01BD00BF33
:100AD800002807DB00F01F02400901239340024A67
:100AE80042F82030704700BF00E100E0002808DB32
:100AF8000901C9B200F1604000F5614080F80013B7
:100B0800704700F00F000901C9B2014B1954704732
:100B180014ED00E0044B23F07F03044A9360BFF315
:100B28004F8FBFF36F8F70470000000800ED00E0A3
:100B380008B5FFF7EFFF0B4AD2F8883023F47003AB
:100B4800C2F88830EFF3148323F0040383F3148886
:100B5800BFF36F8FFFF730FCFFF73AFC00F070F837
:100B680001F0ACFA00ED00E010B4A2F120040E4947
:100B780042F8081C21F0010142F8081C42F8203C08
:100B8800019B42F81C3C029B42F8183C039B42F82C
:100B9800143C4FF0807342F8043C04650023C0F80D
:100BA800A83010BC704700BF8D020008104B9B682E
:100BB800BBB110F1160F0BD0D3F89420A2F1400C62
:100BC800844510D8824210D98A4207D8002070473D
:100BD800D3F894208A4201D800207047D3F89400B3
:100BE800704700207047002070470020704700BF02
:100BF8003404002008B50E4615460C4A9060D0F81B
:100C0800A4200B4B1A6000F053F82C4686F3098891
:100C18000020044B98472046002100220023024C64
:100C280020470000913500088D0200083404002098
:100C3800E8020020014B10221A61704700ED00E025
:100C4800002206E003F00F030949194410230B762C
:100C58000132512A0ADC53B2002BF3DB03F1604363
:100C680003F56143102183F80013F1E7704700BFD3
:100C7800FCEC00E008B5EFF30583103B044A02EBF7
:100C8800C301496852F833008847FFF71FFC08BDC5
:100C9800E04E000808B5034B034A0121034802F05F
:100CA800B7FD08BD00800120000000203057000873
:100CB80008B5D0F89430403B0448036040234360B3
:100CC800034B8360012102F0A7FD08BDEC02002060
:100CD80000000B15084AC2F898000B6823F01F03A0
:100CE800034343F01003C2F89C308B6843F00103C0
:100CF800C2F8A030704700BF00ED00E0084BD3F801
:100D08009030C3F30723013B984205D810B5044639
:100D1800FFF7E0FF204610BD6FF01500704700BFD9
:100D280000ED00E010B5034C0123227802F070FCBE
:100D3800207010BD6804002008B500230B4A127803
:100D480002F066FC10F1160F0FD0024606E0084BC1
:100D5800C3F898200021C3F8A0100132044BD3F83F
:100D68009030C3F307239342F1DC08BD68040020E8
:100D780000ED00E0044B0522C3F89420BFF34F8F29
:100D8800BFF36F8F704700BF00ED00E0BFF35F8FC8
:100D9800024B0022C3F89420704700BF00ED00E02A
:100DA80038B51C4B1D681C4BD3F89030C3F3072390
:100DB8009D422BD8FFF7EAFF002409E0154B5B683A
:100DC80004EB440103EB81012046FFF783FF013464
:100DD800A542F3D81148057002F042FC10F1160F35
:100DE80013D00E4B1A780C4BD3F89030C3F307236B
:100DF8009A4207DA084BC3F898200021C3F8A010DC
:100E08000132F0E7FFF7B6FF002038BD4FF0FF30A2
:100E1800FBE700BF3C57000800ED00E06804002035
:100E280008B5024B1B689847002008BDF80200204F
:100E3800034B1860034A937843F00203937070479A
:100E4800F80200200400002008B5064921F0070137
:100E5800C1F1005202F5C032034802F0F3FA002053
:100E680008BD00BF87120020FC0200200023994221
:100E78000ADD10B400EB030C044C04F80C20013319
:100E88009942F7DC10BC7047704700BF140000207F
:100E9800F8B50746002401E00134E4B27B78A342A8
:100EA80017D93D786619304600F0EEF80028F3D0DF
:100EB800304600F005F9074B53F83620002AEBD0EE
:100EC80006F01F0503EBC60359680120A8409047A8
:100ED800E2E7F8BD0803002001F0030C0CF1020260
:100EE8000A4B53F822200B0C22EA114193FAA3F380
:100EF8004BB1B3FA83F3984001430CF1020C034A57
:100F080042F82C1070472023F5E700BF000001408D
:100F180000F003030233074A52F82320030C02EAC5
:100F2800104093FAA3F31BB1B3FA83F3D840704788
:100F38002023FBE70000014008B5034668B1B0FA7A
:100F480080F2C2F11F02D2B205498856054A1168DB
:100F58000B43136002F004FB08BDFF22F4E700BF57
:100F68001400002000040140024A136823EA000329
:100F78001360704700040140032926D8DFE801F018
:100F8800020C151E114B9A6822EA00029A60DA6870
:100F980022EA0002DA6070470C4B9A6802439A60B2
:100FA800DA6822EA0002DA607047084BDA6802431E
:100FB800DA609A6822EA00029A607047034B9A68DE
:100FC80002439A60DA681043D86070470004014011
:100FD80010B498B1B0FA80F3C3F11F03DBB29C469A
:100FE8000D4850F8330088420AD088B90A4B43F8B4
:100FF8003C1003EBCC035A6010BC7047FF23EEE7AC
:10100800054C04EBC3035B689342EED10020F3E781
:101018006FF00F00F0E700BF0803002060B1B0FADE
:1010280080F3C3F11F03DBB2044A002142F83310F6
:1010380002EBC30251607047FF23F5E70803002065
:1010480000B583B00F4803F0A2FBA8B100230093BA
:101058000193BDF80030602262F30B03ADF8003055
:1010680001230193074B9B681B6843B169460548F8
:10107800984703B05DF804FB6FF01200F9E76FF0D2
:101088005700F6E7204D000800F01F0201239340A7
:101098003F2811D81F2807D8084A5269934301D01E
:1010A8000020704701207047044A526B934301D0D7
:1010B800002070470120704700207047000401405D
:1010C80000F01F02012393403F2809D81F2803D8A6
:1010D800054A536100207047034A53630020704754
:1010E8006FF01500704700BF00040140034B1B68F8
:1010F800C3F30313024A52F823007047001002405A
:10110800E8590008104B1B6813F4806F0ED10E4A83
:10111800136843F48073136001E0012B06D00A4B77
:101128001B6813F48063F8D00123F6E7064A936836
:1011380023F0030343F001039360034B9B6803F020
:101148000C03042BF9D170470010024070B50C460F
:101158001546434B1E680121304602F0DAFB23880E
:10116800C3F30B03013B5F2B75D8DFE803F0446141
:101178006569746C407072464F58747474747474F2
:101188007474747474747474747474747474747417
:101198007474747474747474747474747474747407
:1011A80074747474747474747474747474747474F7
:1011B800747474747430747474307474743E7474A5
:1011C80074747474744074747440747474422E60CB
:1011D8002368B3F5805F41D32A68C3F3133301331F
:1011E800B2FBF3F22A60002037E02E60F0E72860B7
:1011F800EEE72860ECE72E60EAE700F025F9072320
:101208001422012102F07EFB2860E1E700F01CF9BE
:1012180002231422012102F075FB2860D8E700F0B0
:1012280013F904231422012102F06CFB2860CFE794
:101238004FF400432B60CBE74FF4FA432B60C7E72A
:10124800084B2B60C4E7FFF751FF2860C0E72E600A
:10125800BEE72E60BCE76FF0850070BD0020FCE79C
:101268003C0000200024F40038B5314B1B6813F40F
:10127800806F0ED12E4A136843F48073136001E027
:10128800012B06D02A4B1B6813F48063F8D0012386
:10129800F6E7274AD2F8943043F00103C2F89430B5
:1012A80001E0012C07D0224BD3F8944014F002043B
:1012B800F7D00124F5E7FFF709F81D4AD2F8903076
:1012C80043F00103C2F8903000E03DB9184BD3F861
:1012D800905015F00205F8D02546F6E7FFF71CF800
:1012E800134B1A6842F008021A601A6822F0F002DA
:1012F80042F0B0021A601A6842F004021A605A6892
:1013080022F47F425A601B6813F0020F0ED1084A7C
:10131800136843F00103136001E0012B06D0044B6E
:101328001B6813F00203F8D02B46F6E738BD00BF60
:101338000010024010B51F4B9B6803F00C030C2BE8
:1013480005D01C4A136823F08073136008E0FFF788
:10135800D9FE184A936823F0F0039360F1E733B19C
:10136800144B1B6813F00073F9D00123F7E7114CF5
:10137800E36823F40033E360E36843F48033E36015
:10138800E36823F4C003E360E36843F48013E36095
:1013980000F05EF8236843F08073236001E0012BBE
:1013A80006D0044B1B6813F00073F8D00123F6E74E
:1013B80010BD00BF0010024038B500F05FF81E4CA9
:1013C800204602F03EFB00F099FC1C4B9B68C3F3DF
:1013D80003131B4AD35C20FA03F513781C41A5427A
:1013E80022D3FFF741FFFFF7A5FF144B9A6822F0BD
:1013F800F0029A609A6842F003029A600F4B9B6869
:1014080003F00C030C2BF9D1A54211D20D4B0A4A5B
:101418001A600A4B9A6822F4E0629A609A6822F489
:1014280060529A60002038BD204600F0C1FCD8E721
:10143800204600F0BDFCE9E700B4C40400100240F7
:10144800185A00083C000020004870470024F400A7
:1014580008B502F0F7FA074AD168074B0B4040F08D
:10146800007040F4A0500343D360D36843F0807306
:10147800D36008BD001002408C80FFF982B0064B93
:101488009A6D42F080529A659B6D03F080530193E8
:10149800019B02B0704700BF0010024010B504461F
:1014A8000A2806D0E1B2064883685B689847204658
:1014B80010BD034883685B680D219847F2E700BFB9
:1014C800804E000810B5044C2046FFF7B1FC2046BA
:1014D800FEF7BCFE10BD00BFA514000808B50548FE
:1014E80003F055F918B1FFF7EDFF002008BD6FF0C4
:1014F8001200FBE7804E000808B5436841B103F1CC
:101508000C010B4B9B681B685BB10948984708BDE9
:1015180003F10C01064B9B685B682BB104489847A4
:10152800F5E76FF05700F2E76FF05700EFE700BFFD
:10153800204D00082DE9F8430F4616461C46D0F802
:101548000480D0F81090D8F8080002F0B7F9B6F582
:10155800001F0FD00546B6F5800F2DD0B4F1806F6F
:1015680026D0B4F1C06F25D0B4F1007F09D06FF058
:1015780015041AE03946D8F8080002F091FC002456
:1015880013E002264A460F492846FFF721FD044684
:10159800A8B9D8F80810384602F095F93146284617
:1015A800FFF7EAFC2846FFF7C7FC2046BDE8F883AA
:1015B8000126E7E70326E5E76FF08504F5E76FF016
:1015C8000F04F2E7393B000810B504460369586078
:1015D800084803F0DCF848B1074A536843F400733D
:1015E80053600649204602F052FA10BD6FF012000F
:1015F800FBE700BF204D0008007000403D3C00089C
:10160800B0F5D07F17D2F8B504460D461646030943
:101618000A4A52F823705FB1384603F0B8F838B177
:1016280033462A4604F00F01384602F051FCF8BD53
:101638006FF01200FBE76FF015007047D8580008EC
:101648002DE9F84306460C4643681D680369D3F83C
:1016580004900B79012B17D0022B18D14FF480611D
:101668006279012A18D0022A18D092B14FF4005793
:1016780094F80680B8F1020F13D0B8F1040F16D011
:10168800002B62D1002014E04FF4C061E8E700218C
:10169800E6E74FF48057EBE70027E9E74FF44057B8
:1016A800E6E70BB1002004E04FF0805001E04FF472
:1016B8008050A3F1030C5FFA8CFCBCF1010F65D9D3
:1016C80013B1B8F1040F64D0B7F5805F42D0B7F515
:1016D800405F41D0002F3BD003239A425CD102F0F7
:1016E800D3FC80455BD1E379D3B1012B36D0032BF2
:1016F80058D1314B9D4213D0A3F574439D420FD06E
:1017080003F580639D420BD003F580639D4207D0AB
:1017180003F580639D4203D003F540539D4244D1B5
:101728002B6823F001032B602146304602F0C1FCF0
:1017380000283DDB2B6843F001032B6094E803008D
:1017480089E803000020BDE8F8834FF48050B0E733
:101758000123C2E70023C0E70223BEE7164A9542E9
:10176800DED0A2F574429542DAD002F58062954245
:10177800D6D002F580629542D2D002F580629542B9
:10178800CED002F540529542B1D1C9E76FF085003D
:10179800D9E76FF08500D6E76FF08500D3E76FF0E3
:1017A8008500D0E76FF08500CDE76FF08500CAE7C8
:1017B8006FF08500C7E700BF0038014008B5024A4E
:1017C80002F07BFD08BD00BF2343000808B5024AAC
:1017D80002F086FD08BD00BF2943000870B5044625
:1017E8000D46164643681B681868196801F4C061FD
:1017F80000F0102002F048FC042806D0044B3246C2
:101808002946204602F0C9FD70BD6FF08500FBE750
:10181800F543000870B504460D46164643681B6834
:101828001868196801F4C06100F0102002F02CFC5F
:10183800042806D0044B32462946204602F0D9FD3A
:1018480070BD6FF08500FBE73744000843681A68ED
:1018580002F1080353E8003F43F0010302F10800D6
:1018680040E800310029F3D10F4B9A420FD0A3F57D
:1018780074439A420BD003F580639A4207D003F56C
:1018880080639A4203D003F580639A4203D1536878
:1018980043F04003536052E8003F43F4807342E84A
:1018A80000310029F7D170470038014043681A68B1
:1018B80002F1080353E8003F23F0010302F1080096
:1018C80040E800310029F3D10F4B9A420FD0A3F51D
:1018D80074439A420BD003F580639A4207D003F50C
:1018E80080639A4203D003F580639A4203D1536818
:1018F80023F04003536052E8003F23F4807342E82A
:1019080000310029F7D170470038014038B54568E3
:1019180004690948206002F03AFF48B12068E96884
:1019280083681B680BB1984738BD6FF05700FBE719
:101938006FF01200F8E700BF204D0008F8B5064622
:1019480045682C6803695F68236823F001032360F6
:10195800686802F01CFF002871D0A968686802F066
:1019680053FB54E8003F43F00C0344E80032002ADC
:10197800F7D13946304602F09CFB002862DB2B7D0C
:101988001BB1A36843F00803A3606B7D1BB16368B8
:1019980043F400436360AB7D1BB1636843F4803359
:1019A8006360EB7D1BB1636843F4003363602B7E97
:1019B80083B3274B9C4213D0A3F574439C420FD0AA
:1019C80003F580639C420BD003F580639C4207D0EB
:1019D80003F580639C4203D003F540539C4234D105
:1019E80073681A68936843F4804393606A7E236837
:1019F80023F0787343EA42532360AA7E236823F4D2
:101A0800F81343EA02432360EB7E1BB1A36843F457
:101A18000043A360236843F00103236000E033B967
:101A2800E36913F40013FAD00123F8E72AB9E2694D
:101A380012F48002FAD01A46F8E70020F8BD6FF0D9
:101A48001200FBE76FF01500F8E76FF01500F5E7F7
:101A5800003801404FF0E023996918699A6909B97B
:101A68000C4B19680AB90B4B1A6810F4803F01D166
:101A7800914208D208490B680648006803440B6085
:101A88004FF0E0231B69034B1B689B1A024A10683E
:101A9800184470472C040020280400200A4B102208
:101AA80083F82320094B4FF4FA521A600020084BA0
:101AB80018604FF0E02341F63F725A6198611A6945
:101AC80042F007021A61704700ED00E02C04002084
:101AD80028040020684620F007018D4619B5FFF755
:101AE800B9FF12480368124A516814681B1941F17A
:101AF800000113605160002202600E490A68981ABA
:101B08000D4BA3FB0030400A4FF4FA5300FB03F3DC
:101B1800D2184B6843F100030A604B6001F0B2F839
:101B2800FEF7D4FCBDE8194085467047280400201C
:101B38007000002068000020D34D6210F8B500291D
:101B48004DD0B0F1FF3F3FD03F4B1C6801284EDD20
:101B580040F631039842A8BF1846461EEFF3118598
:101B6800102383F31288BFF36F8FFFF773FF4FF0D3
:101B7800E0239F69354A13685168C31841F1000191
:101B8800136051600021324A1160324A11685A1AB2
:101B98002FD44FF4FA5000FB062202F5F9521F32F7
:101BA8002D4EA6FB0262520AC91A00FB02110A4610
:101BB800B1F5806F38BF4FF48062284B994236D90F
:101BC800214B264A1A6018E04FF0E022136923F0EF
:101BD800010313611C4B4FF07F421A6026E01A4B39
:101BE8001C68B0F1FF3FB1D14FF40360B0E70026A5
:101BF800B4E7154B4FF480621A604FF0E0239969FF
:101C0800114A1268013A5A6100229A618F4211D230
:101C1800641A3C440D4A136851681B1941F10001CC
:101C28001360516085F31188BFF36F8FF8BD064BC1
:101C38001A60E2E77F1A054A13685168DB1941F117
:101C4800000113605160EDE72C04002070000020B3
:101C58002804002068000020D34D621000DCFF003B
:101C680038B5EFF31185102383F31288BFF36F8F14
:101C7800084B1C68084B1B68E41AFFF7EBFE20446E
:101C880085F31188BFF36F8F044BA3FB0030400A24
:101C980038BD00BF7000002068000020D34D6210DE
:101CA80070B582B0044645680669286802F06FFD81
:101CB800F8B14FF4B011284602F088FC002808DB80
:101CC80000220D49304602F02DFF7463A96811B94E
:101CD800002002B070BD8B0F8A00521843F1000338
:101CE80092185B4100920193304601F0DBF8002026
:101CF800EFE76FF01200ECE739460008284A9368CE
:101D0800D26802F0030213F00C030AD00C2B06D0A1
:101D1800042B1FD0082B20D00020024610E0012AF7
:101D2800F6D11F4A126812F0080F0CD11C4AD2F8DB
:101D38009420C2F303221B4951F8222043B100200A
:101D48000C2B0DD07047164A1268C2F30312F2E743
:101D58001046F5E714480022F2E714480022EFE79E
:101D68000F4BDB6803F00303022B16D0032B00D1C3
:101D78000E4A0B49CB68C3F302130133C868C0F39A
:101D8800062002FB00F0B0FBF3F0CB68C3F341631D
:101D980001335B00B0FBF3F0D4E7034AE9E700BF87
:101DA80000100240E85900080024F40000127A00EC
:101DB800421E294B9A424CD8284B1B6803F4C06337
:101DC800B3F5007F11D0264B984229D8A3F5F40328
:101DD800A3F59053984232D8224B984232D8224BDE
:101DE800984232D8002108461CE0204B98420BD874
:101DF8001F4B98420BD81F4B98420BD81E4B98424A
:101E08000BD8002108460DE0042100200AE0032138
:101E1800002007E00221002004E00121002001E069
:101E280000210120154A136823F007030B431360B0
:101E3800136803F0070399420AD001207047032171
:101E48000020EFE702210020ECE701210020E9E76C
:101E580070470120704700BFFFB3C4040070004002
:101E680080BA8C01001BB700808D5B000090D00306
:101E7800006CDC020048E8010024F4000020024065
:101E880038B5EFF31185102383F31288BFF36F8FF2
:101E9800054B9C6802F093FC85F31188BFF36F8FA4
:101EA8002046FEF7B7FD38BD3404002010B586B0D3
:101EB800B023114C03FB004400EB400C00EB800006
:101EC8000E4B03EB80030E4A0592012204920F2267
:101ED800039200220292019200930A4B4FF4A072DF
:101EE800094901EBCC11204600F024F9637B23F06B
:101EF8000403637306B010BDB00000203404002052
:101F0800285A0008CD470008C00C002038B50546FF
:101F18000B4B53F8204002E02368984708346B1CA9
:101F2800074A52F82330A34209D960680028F3D041
:101F3800037F13F0010FF1D102F010FCEEE738BD7A
:101F4800385A000808B553EA020102D100F04AFCE9
:101F580008BD0249183000F0FBFDF9E7D149000837
:101F680010B586B0184C14E0636A0593236A04938D
:101F7800E3690393A3690293636901932369009357
:101F8800E368A2686168206800F0D4F823685C659B
:101F980030340E4B9C42E7D300F002FB0A4C00E0C1
:101FA80030340A4B9C420BD2A26AE36AB3F1FF3F7A
:101FB80008BFB2F1FF3FF3D02068FFF7C3FFEFE798
:101FC80000F006FB06B010BD705100087051000803
:101FD80008B50A4B01221A700320FFF797FF00F09B
:101FE80099FF0420FFF792FFFFF7BAFFFEF7C8F842
:101FF800034A137B23F00103137308BD690400200F
:102008006001002008B50146014A0248FEF7F2FDCA
:10201800D91F00086001002010B50446FFF746FFED
:10202800B0230B4903FB04110A4A04EB840302EBB7
:102038008303D9601C7404EB4411074B03EB811331
:1020480003F5046304EB840402EB8402536010BDBF
:10205800B0000020340400208004002070B586B051
:1020680000F0EEFA104D114B5D61114B0593012301
:102078000493002403940294019400940D4B4FF4AC
:1020880080620D49284600F055F806466B7B23F020
:1020980004036B73284602F02FFC2046FFF7BCFFB1
:1020A800304606B070BD00BF600100203404002037
:1020B800305A0008D91F0008400E002008B500203B
:1020C800FFF724FF184B83F30888184C636943F41F
:1020D80000736361F02384F822300023E3772376CA
:1020E8006376A37684F82030636A43F4E02363625E
:1020F800FEF75AFCFEF79EFD4FF0FF33A362E36242
:10210800FEF74EFEFEF7C6FD094800F075F8FEF72B
:1021180035F90120FFF7FAFE0220FFF7F7FEFFF777
:102128009DFFFFF76FFF00BFC00C002000ED00E02F
:10213800100200202DE9F04F85B004460F461546E1
:102148001E46DDF838A0DDF83C90DDF84080DDF86B
:102158004CB000F158038365C365129B04221199A2
:1021680002F063FB2A463946204602F038FB054652
:10217800CDF80880CDF80490CDF800A0334602468B
:1021880039462046FEF7F0FC002363652666C4F84E
:1021980064A0C4F86890C4F86C80EFF3118210232F
:1021A80083F31288BFF36F8F124B196A21671C6281
:1021B80082F31188BFF36F8FBBF1000F13D01F227A
:1021C800594604F1740002F0E2FC002384F89330CD
:1021D800084B9B685BB1D3F8A030C4F8A030284600
:1021E80005B0BDE8F08F002384F87430F0E7C4F838
:1021F800A030F4E734040020012343730373002361
:10220800C0F89430C0F89830C0F8A030014B9860FE
:10221800704700BF340400200A4A9368C3F8A80036
:102228006FF00A01C3F8AC1007494B6843F08053BC
:102238004B60002383F31188BFF36F8F9368D3F843
:10224800AC0070473404002000ED00E0437B90F9B7
:102258000D20002A51DB13F01F0F4ED110B563F08B
:102268007F034373254A52F8183F93420ED1002347
:102278000CE05A6842600360106058601EE01A461D
:102288001E49C9698A420FD01B687BB173B190F9A6
:102298000E1093F90E209142F1D0521A002AE8DC70
:1022A8001A46002BECD1F0E70023EEE7134BDA696E
:1022B80003F11801016042601060D8610F4B53F8B8
:1022C800184F9C420ED06CB10C4B9B685A7B12F095
:1022D8001F0F0AD1DA897F2A07D9A2692AB9074AC2
:1022E800536109E0054BDC68EEE7A34202D02046C3
:1022F80000F08EFB014B5C6110BD70473404002078
:1023080010B5437B90F90D20002A14DB154B9A6811
:1023180053F8184F9C4219D0C4B1824219D0537B4C
:1023280013F01F0F15D1D3897F2B12D9A36983B955
:102338000C4B5A6114E003F07F034373426803684F
:1023480013605A60002303604360DFE7054BDC68D5
:10235800E3E7A24202D0204600F05AFB014B5C6141
:1023680010BD00BF340400202DE9F84305460C4693
:10237800414B9E68737B13F0600F2BD013F0200F36
:102388002DD008271F4225D13B43737313F0800FCC
:1023980027D1082F30D04FF00009374B53F8188F4A
:1023A80098454ED0B8F1000F4BD0334B9B6843454E
:1023B80002D0404600F02CFB2F4BC3F81480102F9E
:1023C80008D0304601F0DDF8304600F081FBB9F165
:1023D800000F3AD184F31188BFF36F8F46E01027BE
:1023E800D0E703F07F0373737268336813605A6031
:1023F800002333607360CCE7B3685BB172683368FD
:1024080013605A60002333607360727B22F002020B
:102418007273B360304602F047FA06F1580002F0D2
:1024280048FA154B9B689E4202D04FF00009B4E76A
:10243800EFF3058313B94FF00009AEE74FF0010938
:10244800ABE70D4BD3F80C80AFE70C48FFF7D4FE91
:10245800C0E7EFF31184102383F31288BFF36F8F63
:1024680002F0BBF984F31188BFF36F8F6B7B13F015
:10247800600FEED1BDE8F88334040020100200207C
:1024880010B5437B90F90D20002A0ADB437B63F0EB
:102498007F0343732B4A52F8183F934219D1002304
:1024A80017E003F07F0343734268036813605A60C0
:1024B800002303604360E9E75A68426003601060E4
:1024C80058601EE01A461F49C9698A420FD01B6826
:1024D8007BB173B190F90E1093F90E209142F1D0AF
:1024E800521A002AE8DC1A46002BECD1F0E7002348
:1024F800EEE7144BDA6903F11801016042601060DD
:10250800D861104B9A6853F8184F9C420ED06CB1A2
:1025180082420ED0537B13F01F0F0AD1D3897F2B31
:1025280007D9A3692BB9074B5A6109E0054BDC6849
:10253800EEE7A24202D0204600F06AFA014B5C6145
:1025480010BD00BF3404002008B50B4659B9EFF39D
:10255800058242B9064A50699268904203D00846FB
:10256800FFF75AFE03E083F31188BFF36F8F08BDAE
:102578003404002008B5034650B9EFF305823AB990
:10258800064A51699268914202D0FFF745FE03E07E
:1025980083F31188BFF36F8F08BD00BF3404002098
:1025A8000023EFF31181102282F31288BFF36F8F9B
:1025B80009E0064B9A68D37B013BD37381F31188FA
:1025C800BFF36F8F0123002BF3D070473404002032
:1025D80038B50023EFF31185102282F31288BFF378
:1025E8006F8F0EE0154BDC6817E0A24202D0204640
:1025F80000F00EFA114B5C6185F31188BFF36F8F01
:102608000123BBB90D4B9A68D17B0131D17353F8C3
:10261800184F9C42E6D0002CE4D0537B13F01F0FD8
:10262800E3D1D3897F2BE0D9A369002BDDD1034BFC
:102638005A61E1E702F0F3F938BD00BF3404002025
:1026480008B5024802F0F6F908BD00BF48040020AA
:1026580038B5EFF31184102383F31288BFF36F8F1B
:10266800224B9A68DB699A4205D013685168126850
:102678000A60516006E00023F8E71C4AD2699342D9
:1026880012D01B6893B1194A906890F90E1093F90B
:102698000E209142F1D0521A002AEEDD5A684260AB
:1026A8000360106058600AE00023EBE70F4B9A685C
:1026B800D96903F11800106051600A60DA610B4BA8
:1026C80053F8185F9D420DD065B1084B9B689D4239
:1026D80002D0284600F09CF9044B5D612046FFF7C4
:1026E8009BFD38BD014BDD68EFE700BF34040020D7
:1026F800F8B551EA000328D005460C46EFF31187D8
:10270800102383F31288BFF36F8F154EB068154BF3
:102718001860FFF7F5FDB0682A46234612491830BD
:1027280000F016FA0446B268537B43F0040353736F
:102738003846FFF771FDB3689A6ADB6AB3F1004F58
:1027480008BF002A05D00020F8BDFFF781FF002050
:10275800FAE702F0D4F9201A0028F5DC0020F3E7A4
:102768003404002058040020D149000838B5044634
:102778000D46FFF7BDFF03462046B5F1FF3F08BFF2
:10278800B4F1FF3F28D0DA1713F1090042F1000332
:102798000021C21821D20A441149A1FB024525F0A3
:1027A800030404EB9504121B801A63F100034FF035
:1027B800CC3200FB02F201FB0322A0FB01010A4418
:1027C800430843EAC27352081846B3F1004F72F146
:1027D800000201D36FF0004038BD0121DBE700BFE4
:1027E800CDCCCCCC38B5EFF31185102383F3128808
:1027F800BFF36F8F437B13F0040F04D185F3118867
:10280800BFF36F8F38BD0446183002F049F9637B77
:1028180023F0040363732046FFF718FD2946024896
:10282800FFF792FEEEE700BF58040020014B9868BE
:10283800704700BF340400202DE9F843037B03F000
:102848000107EFF31186102383F31288BFF36F8F0C
:10285800457B15F0080F1AD10446B14600F1580817
:1028680001F0EEFF10B345F020056573EFF3058323
:102878009BB131462046FFF777FD67B1002383F30C
:102888001188BFF36F8F0423184602DF03E086F335
:102898001188BFF36F8FBDE8F88341463F4B9868B6
:1028A80001F0D0FF3046FFF7B7FCE6E745F0080334
:1028B800637313F0800F36D1A3685BB16268236835
:1028C80013605A60002323606360627B22F0020277
:1028D8006273A36004F1180002F0E2F8404601F0C8
:1028E800E8FF2E4B9A6894422AD000262B4B53F8C7
:1028F800185F9D422BD055B3AA4202D0284600F05B
:1029080087F8264B5D61204600F03BFE204600F02C
:10291800DFF8FEB9214B9B689C421FD089F31188D0
:10292800BFF36F8FA9E705F07F0545F008056573CC
:102938006268236813605A60002323606360BBE702
:10294800EFF305830BB90026D0E70126CEE7134B3A
:10295800DD68D1E71248FFF74FFCDBE7EFF30583AB
:10296800002BDBD1237B13F0010F12D089F31188E0
:10297800BFF36F8F002383F31188BFF36F8F042396
:10298800184602DFEFF31189102383F31288BFF38F
:102998006F8F4846FFF740FC6FE700BF3404002004
:1029A80010020020044BC01AC010044B03FB00F0B7
:1029B800034B01221A547047C0020020ABAAAAAAEE
:1029C8005C040020C3897F2B11D80E4B1B687BB198
:1029D80090F90E200C4B1B689A420CDB437B13F0DA
:1029E8001F0F0AD1094B984209D0012300E00023A8
:1029F80003F0010070470023FAE70023F8E70023FB
:102A0800F6E700BF4000002060040020B00000206E
:102A180070B505460D4B1E7C06EB46030C4C04EBCB
:102A2800C304204602F03CF80A4B00229A55284677
:102A3800FFF7C8FF00B970BD074B1A68013AD317F2
:102A48000649204600F084F8F5E700BF340400206A
:102A5800C00200205C04002040000020AD290008CE
:102A680038B5EFF31185102383F31288BFF36F8F06
:102A7800144B9C68144B1B68A34217D0124B0022BE
:102A88001A60104B1B7C114AD35C53B12046FFF7E8
:102A980099FF30B1637B13F01F0F0FD02046FFF76B
:102AA800B7FF85F31188BFF36F8F38BD2046FFF756
:102AB800AFFF85F31188BFF36F8FF6E72046FFF766
:102AC800DFFCEBE734040020580400205C040020FD
:102AD800EFF31181102383F31288BFF36F8F0A4B32
:102AE8001B6A834204D11A6F074B1A6207E0134628
:102AF80013B11A6F8242FAD10BB1026F1A6781F3D0
:102B08001188BFF36F8F704734040020034B186897
:102B1800984200D070470020FCE700BF4400002026
:102B280030B1044A5268904201D0006870470020D2
:102B3800704700BF4400002008B5044B1B680BB168
:102B4800002008BDFFF78CF8FBE700BF64040020F5
:102B58002DE9F04F83B0B3F1FF3F08BFB2F1FF3F5B
:102B68000ED0044691461F4681600023EFF3118A78
:102B7800102282F31288BFF36F8F1D46019335E050
:102B8800002501952846019903B0BDE8F08FFFF7AD
:102B9800D3FF8046013547F10006451946EBE0763C
:102BA80025616661344A13685268ED1846EB0203E2
:102BB80001934FF0010B38E0C91A66EB020201617C
:102BC80042614368636020601C60446005E02B4BF1
:102BD8005A682360626014605C60FFF797FF844264
:102BE80037D08AF31188BFF36F8F0123002BC9D127
:102BF8004D460197002FCADA1F4B19685B686918A0
:102C080043EB07036FF00102521A4FF0FF3161EBFB
:102C1800030310461946012A73F1000301DA012063
:102C28000021206161614FF0000BFFF76FFF002862
:102C3800CDD001694669236962698B4272EB060E41
:102C4800BADB5B1A62EB060223616261FFF768FF79
:102C5800EDE70B4B1B68002BC3D1BBF1000F06D06F
:102C6800404601F002FF0021FEF768FFB9E7FFF7D1
:102C780063FF8046F4E700BFD8020020440000202C
:102C88006404002070B5EFF31186102383F31288D3
:102C9800BFF36F8F2A4B1860FFF738FF044623E015
:102CA800284A136851685B1941EBE571136051605C
:102CB80000220023C4E90423204601F0BFFE86F366
:102CC8001188BFF36F8FA36820469847EFF31186EA
:102CD800102383F31288BFF36F8F194A13685B1BA5
:102CE8001360FFF713FF04463CB125696169144B73
:102CF8001A68D317AA428B41D2DA44B123696269B0
:102D08000F4909685B1A62EBE172236162610D4A3F
:102D18000B4D2868136851681B1841EBE07113606C
:102D2800516000242C60204601F09FFE2146FEF7EA
:102D380005FF86F31188BFF36F8FFFF791FE70BD13
:102D480064040020D802002010B50022EFF311849B
:102D5800102383F31288BFF36F8F134611460CE0DC
:102D6800FFF7EAFE074A13685168C31841EBE071A0
:102D780084F31188BFF36F8F0122002AF0D0184620
:102D880010BD00BFD8020020EFF31183102282F398
:102D98001288BFF36F8F026822B183F31188BFF3E3
:102DA8006F8F70472DE9F04104461D46866AC26A56
:102DB80056EA020105D0B2F1FF3F08BFB6F1FF3F66
:102DC80028D1236B01332363236A6BB185F3118800
:102DD800BFF36F8F236A20469847EFF311851023BE
:102DE80083F31288BFF36F8F04F11803A469A34219
:102DF80051D0002C4FD0204601F099FD0023C4F893
:102E0800AC3085F31188BFF36F8F204601F074FD55
:102E1800BDE8F081013E42F1FF321746002A14DB7B
:102E280001F071FE013041F10001801941EB070109
:102E3800012871F100010BDA6FF001024FF0FF3346
:102E480017492046FFF784FEBBE700263746E7E729
:102E580001F059FE013041F10001801941EB0701F1
:102E68006FF0020383426FF000438B4103DA0022C4
:102E78004FF00043E4E701F046FE421C41F1000335
:102E8800911943EB07036FF00102521A4FF0FF311B
:102E980061EB0303D4E785F31188BFF36F8FB7E7BE
:102EA800912D0008F8B51D46EFF31187102383F321
:102EB8001288BFF36F8FB5F1FF3F08BFB2F1FF3F34
:102EC80021D0064614462B46002D08DB012A73F153
:102ED800000301DA01240025013C45F1FF353046A5
:102EE80001F0DEFDDDE90623C6E90A23002333638A
:102EF80022462B4606493046FFF72AFE87F31188FB
:102F0800BFF36F8FF8BD87F31188BFF36F8FF9E7B1
:102F1800912D000808B5024800F0D8FA08BD00BF96
:102F2800505A00082DE9F04F8DB04368029383781A
:102F380015469A07804640F10D8100240E78002E30
:102F480000F00A81252E0BD04B1C03930134029B01
:102F58004146304698470028C0F2F6800399EDE7CD
:102F68004E788B1C252E0393F0D00027B946BB461C
:102F7800BBF11F0F38D8A6F12003102B0AD8DFE8C1
:102F880003F02A0909300909092109090928092D25
:102F980009091F00A6F13003092B33D92A2E37D18E
:102FA8001BF0400F55F8043B40F08280002BA7BF70
:102FB8004BF0200B9946C3F100094BF0280B01E0B8
:102FC8004BF0010B039B13F8016B0393002ECFD139
:102FD80030E04BF0020B4BF0040BF3E74BF0080B1F
:102FE800F0E74BF0100BEDE7BBF17F0F19D8A6F116
:102FF8003003092BD2D81BF0400F03D00A2101FB64
:103008000737DFE70A2101FB09394BF0200BD9E725
:103018002E2E06D11BF0400F40F09E804BF0400B47
:10302800D0E76C2E31D02BD8682E36D06A2E3CD003
:103038004C2E3AD0002F46F02003B8BF2BF04002A8
:10304800A3F16501BCBF1FFA82FB0027022901D941
:10305800612B2FD1073525F00705DFF8ACA208351D
:1030680007271BF0080F66D00AEB070B56465E458C
:1030780063D1A4EB0A0A06EB0A02A9EB07096FE180
:10308800742E9FD07A2E9DD0D4E71BF0800F18BFE6
:103098004BF4007B4BF0800B94E71BF4807F18BF48
:1030A8004BF4007B4BF4807B8CE74BF4207B89E767
:1030B8001F4687E7A6F16301122900F2F080DFE8D6
:1030C80011F013004F00EE00EE00EE00EE004F008E
:1030D800EE00EE00EE00EE00EE00FE00E900EE006D
:1030E800EE001B00EE00AF0055F8043B8DF81830D9
:1030F80001270DF1180AB4E755F804AB834BBAF170
:10310800000F08BF9A461BF0400F14BF39464FF016
:10311800FF31504601F04BFD0746A2E7029B4146AE
:103128002020984700280FDB013EB742F6D34C44D5
:10313800A41BB14698E74E46F7E716F8010B029B29
:1031480041469847002892DA98F8023043F0040381
:1031580088F802304FF0FF3420460DB0BDE8F08FFC
:103168001BF0800F34D01BF4007F2CD0073525F0DE
:103178000705AA4669685AF8080B2BF010050029BC
:10318800ADB237DA404261EB410145F480650DF19B
:10319800180B0A235A4601F016FDA0EB0B03019306
:1031A8006B0662D5019B25F001019F4289B240F36D
:1031B800A180002E00F0998015F0100240F09C804C
:1031C800BB460D4623E0AA465AF8040BC117D4E7BC
:1031D800AA461BF4807F5AF8041B01D10846F5E77C
:1031E8001BF4007F15BF48B208B241F3C01141F388
:1031F800C031C2E750EA0103C9D11BF0400FC6D065
:10320800002FC4D12BF0110295B2BB46019740F2B2
:10321800064115EA01021CBF0BF1010B00222CE04C
:103228002BF010021FFA82FB0A231BF0800C49D0F6
:103238001BF400711DBF073525F00705AA46AA46ED
:103248001ABF5AF8080B69685AF8040B50EA0105C6
:1032580045D12BF016051BF0400FADB242D0002F20
:1032680040D12BF0170295B2019715F0100248D003
:10327800019B002E42D103F1010B29075AD4EB0719
:1032880006D5D9456FDD0199A9EB0B035F18CB462D
:103298005B4649E04BF0100B10237826C5E7782BE6
:1032A80004D1C6F1780343F01003BEE7029B414600
:1032B800252098470028FFF647AF023447E6082341
:1032C8000026B2E7AA461BF480715AF8040BBDD059
:1032D8001BF400711ABFC0B2614680B2B6E72BF08A
:1032E800060295B20DF1180B54E725F01105ADB2A1
:1032F800BB468CE70D46B8E73B460D4603F1020B8B
:10330800BBE7DDF804B082E77F5A0008785A000866
:10331800CDE904324146029B202098470028FFF659
:1033280013AF049B059A01339945F1DCA4EB0B011B
:10333800CC189B460AB3029B414630209847002888
:10334800FFF602AF8EB901342744019B391B99421D
:1033580024DC1D465DBB019AA9EB0B0922445546A6
:103368001446914435E0019F92E7023441463046C5
:10337800029B98470028E7DAE6E640F206410D424C
:10338800E2D015F0020F14BF2B20202015F4806F17
:1033980004F10104414618BF2D20E9E7029B41468C
:1033A80030209847002804F10104CEDACCE606ABB9
:1033B800013D4146585D029B98470028CADAC3E69A
:1033C800029B414620209847002804F10104FFF69B
:1033D800BBAEA9EB0403002BF2DCBFE5704710B5C8
:1033E800131D50F8234074B9C36801249440234343
:1033F800C360043240F82210CB001A1D89B28152F2
:103408000633C15210BDE2000432835A4FEAC10CA0
:103418000CF1040E20F80E300CF1060C20F80C40CC
:10342800DB00063389B2C1528152EBE708B500EBE5
:10343800C1035A885208B2FA82F2C2F11F02FFF79A
:10344800CEFF08BD70B50346043AC81D20F007003A
:103458000A4422F00702121AD50818608560002372
:10346800C360B5FA85F1C1F1200EC1F124018900CC
:10347800CE1DF10805E003F1040C002440F82C40AF
:1034880001337345F7DB4C00A4B244804FF0000CC5
:10349800A0F800C044F0010444806B1A4FEA430EC0
:1034A80026F00704A51C20F805E0015322F00704C4
:1034B800951C20F805C002440353538843F00103C8
:1034C8005380FFF7B3FF70BD002070470FB400B5FD
:1034D80083B004A951F8040B0191FCF7BDFE03B0B9
:1034E8005DF804EB04B07047704708B501F047FB7E
:1034F80008BD08B501F035FB08BD08B501460068F0
:10350800FCF7A0FF08BD08B5FCF7B4FFFCF7DEFF29
:1035180008BD0020704708B500231370CB1E092B87
:103528001AD8DFE803F005090D111919191919142A
:103538001146FDF799F908BD0021FDF701F9FAE7F1
:103548000021FDF711F8F6E7FDF784F8F3E71146D7
:10355800FDF7DAF80020EEE7FDF7E0F80020EAE7EB
:1035680008B540B2FDF7B4FA08BD08B5013140B25C
:10357800FDF7BCFA08BD08B500210120FCF762FF81
:1035880008BD6FF08500704761B662B680F3118898
:10359800BFF36F8F704772B6002383F31188BFF3B0
:1035A8006F8FBFF34F8F30BF62B6BFF36F8F704717
:1035B80043685A1E134206D11F2B06D903681A42C4
:1035C80005D0002070470020704700207047012078
:1035D800704700B585B00B6801934B688A68202B4B
:1035E80012D9B3F1004F11D8013BB3FA83F3C3F1F9
:1035F8001F035B0003F03E031343039301A9FDF788
:103608007DFB05B05DF804FB0823F5E73E23F3E7EF
:103618002DE9F84380460F4699461646002509E0ED
:103628002146F0B2FFF7D5FF064610F1160F14D069
:1036380001360135BD4210DA05EB450408EB840478
:103648006268002AF5D0B9F1000FE9D02046FFF7EB
:10365800AFFF0028E4D16FF015063046BDE8F883C7
:10366800F0B585B0054603A8FCF7A0FE0646002481
:1036780024E0B3F5801F20D1576809589368202BA0
:1036880064D9B3F1004F63D8013BB3FA83F3C3F1B4
:103698001F035B0003F03E0343F0885343F43023D9
:1036A80000970191029369462878FDF727FB0028C7
:1036B800C0F2A8802B7801332B700134B44280F01B
:1036C800A4802001039901EB0412D3681B0D1B058C
:1036D800B3F5000F5ED01DD8B3F5001F3AD0B3F58F
:1036E800800FC6D1576809589368202B4ED9B3F17B
:1036F800004F4DD8013BB3FA83F3C3F11F035B00BE
:1037080003F03E0343F0C06343F400330097019194
:103718000293C8E7B3F1807F56D0B3F1007FCCD1D4
:10372800576809589368202B68D9B3F1004F67D8B8
:10373800013BB3FA83F3C3F11F035B0003F03E03BD
:1037480043F48023009701910293ACE70823A3E791
:103758003E23A1E7576809589368202B12D9B3F183
:10376800004F11D8013BB3FA83F3C3F11F035B0089
:1037780003F03E0343F0885343F40023009701917C
:10378800029390E70823F5E73E23F3E70823B9E718
:103798003E23B7E7576809589368202B10D9B3F12F
:1037A800004F0FD8013BB3FA83F3C3F11F035B004B
:1037B80003F03E0343F0827300970191029372E78E
:1037C8000823F7E73E23F5E7576809589368202B45
:1037D80010D9B3F1004F0FD8013BB3FA83F3C3F10B
:1037E8001F035B0003F03E0343F0887300970191C9
:1037F800029358E70823F7E73E23F5E708239FE7F6
:103808003E239DE76FF0150000E0002005B0F0BDF5
:1038180008B5FDF787FA08BD08B5FDF78DFA08BDAC
:1038280008B5FDF7FDFA002008BD08B506220121FC
:103838000020FDF71BFB002211460620FFF795FE2E
:10384800072201210846FDF711FB00221146072037
:10385800FFF78BFE082201210220FDF707FB00225B
:1038680011460820FFF781FE092201210320FDF7F8
:10387800FDFA002211460920FFF777FE0A220121EE
:103888000420FDF7F3FA002211460A20FFF76DFE27
:10389800172205210846FDF7E9FA002211461720EC
:1038A800FFF763FE282206210A20FDF7DFFA00222F
:1038B80011462820FFF759FE002008BD01F01F011E
:1038C80001208840704708B50246084602F0030305
:1038D80004339B000F21994041EA9201FDF7FCFA5D
:1038E80008BD08B500F0030304339B000F2202FA59
:1038F80003F343EA9000FDF70BFB08BD08B5FDF79D
:103908009FFB08BDB0FBF1F002FB00F0B0FBF3F049
:103918007047B0FBF1F070470B88C3F30B0303F655
:10392800B872C2F30B02182A15D882B003F180438B
:1039380003F504334A68186802431A600B88C3F316
:103948000B0303F1804303F504331B680193019BC8
:10395800002002B070476FF0850070470B88C3F3F2
:103968000B0303F6B872C2F30B02182A0AD803F144
:10397800804303F5043349681A6822EA01021A6091
:10398800002070476FF085007047042805D9063875
:10399800062808D96FF08500704710B96FF08500C8
:1039A8007047002070470020704710B50C46088803
:1039B800C0F30B00FFF7E9FF002822DB6268FF2A4B
:1039C80020D091B201F1804101F50431C2F3415098
:1039D800013001238340013BC2F3044293400A684B
:1039E80022EA03030B6061688BB203F1804303F59D
:1039F80004330A0EC1F304418A4019680A431A6065
:103A0800002010BD0020FCE708B50888C0F30B00B3
:103A180000F6B873C3F30B03182B0BD800F18040E2
:103A280000F5043002684B68934301D0012008BDBB
:103A38000220FCE7FFF7A9FF08B10120F7E7022001
:103A4800F5E77047022070470B4639B111681960D5
:103A580041688A4209D000231360704713680360E5
:103A680041688A42F7D14360F5E74360F3E708B558
:103A78000A460368002101E019461B682BB19342EE
:103A8800FAD1FFF7E1FF012000E0002008BD38B5BA
:103A980005460C460321A047002806DB01212846DD
:103AA800A047002800DB002038BD10F1860FFBD1AD
:103AB800F4E770B504460D461646036833B1FFF7C0
:103AC800D6FF70B91EB96FF0150006E032B1236851
:103AD8002B602560636843B1002070BD6FF015004E
:103AE800FBE7002EF3D10020F7E765600020F4E73C
:103AF80070B50E461546016821B10C683CB131B964
:103B08000C4604E00C4602E0234621461C4671B1EF
:103B18008A682A4002D04B6830469847002CF3D078
:103B28002368002BF1D0002CEFD12346EDE770BDC0
:103B380008B50246084649680830FFF7D9FF08BDAE
:103B480010F4003F19D010230B6010F0020F04D0BE
:103B580010F0040F45D050230B6010F0100F04D064
:103B68000B6843F400730B601CE010F0200F19D0B1
:103B78000B6843F480630B6014E010F4803F0FD0AF
:103B880000230B6010F0100F03D04FF400730B608C
:103B980008E010F0200F05D04FF480630B6001E0BF
:103BA80030230B6000F4C060B0F5806F0DD0B0F525
:103BB800C06F04D0B0F5007F0DD0002070470B68AF
:103BC80043F4C0730B60002070470B6843F48073A4
:103BD8000B60002070470B6843F080030B600020E7
:103BE80070476FF08500704743685B681B690B601E
:103BF8000020704743685B68586942400A40424069
:103C08005A610020704743685B68996100207047DB
:103C180043685B6899620020704743685B685A692B
:103C2800514059610020704708B500690830FFF716
:103C380040FF08BD08B5012911D007D819B90021DE
:103C4800FDF75AFC07E06FF0850004E00239C9B2BD
:103C5800012901D8002008BD6FF08500FBE701218C
:103C6800FDF74AFCF7E710B4046891FAA1F39BB199
:103C7800B3FA83F35B004FF0030C0CFA03F324EA66
:103C8800030391FAA1F149B1B1FA81F149008A40DF
:103C98001343036010BC70472023EBE72021F5E7AE
:103CA80010B4846891FAA1F39BB1B3FA83F35B0073
:103CB8004FF0030C0CFA03F324EA030391FAA1F181
:103CC80049B1B1FA81F149008A401343836010BCBD
:103CD80070472023EBE72021F5E710B4C46891FA78
:103CE800A1F39BB1B3FA83F35B004FF0030C0CFA1A
:103CF80003F324EA030391FAA1F149B1B1FA81F17E
:103D080049008A401343C36010BC70472023EBE787
:103D18002021F5E710B4046A91FAA1F39BB1B3FA34
:103D280083F39B004FF00F0C0CFA03F324EA030310
:103D380091FAA1F149B1B1FA81F189008A4013439E
:103D4800036210BC70472023EBE72021F5E710B48D
:103D5800446A090A91FAA1F39BB1B3FA83F39B0071
:103D68004FF00F0C0CFA03F324EA030491FAA1F1C3
:103D780049B1B1FA81F189008A401443446210BC08
:103D880070472023EBE72021F5E72DE9F8430F469C
:103D98001646994643685D6801248C4002F0300855
:103DA800B8F1300F1ED0C6F38013686820EA04000B
:103DB800BB4018436860C6F3C11221462846FFF786
:103DC8006FFFC6F3412221462846FFF786FFB8F168
:103DD800200F0BD04FEA181221462846FFF743FF61
:103DE800BDE8F883EB6A2343EB62DCE7072F05D8CD
:103DF8004A4621462846FFF78DFFEBE74A4621460B
:103E08002846FFF7A4FFE5E72DE9F04383B0054610
:103E18000E461446D0F8108001A91046FFF790FE10
:103E2800074668BB14F440390BD0D8F8103023FA91
:103E380006F212F0010F04D10122B2401343C8F870
:103E4800103014F4003F05D014F4002F1CD114F4E2
:103E5800802F1FD10023019A31462846FFF795FF8E
:103E6800B9F1000F0CD1D8F8103023FA06F212F08D
:103E7800010F05D00122B24023EA0203C8F810302E
:103E8800384603B0BDE8F0830121B1402846FFF76A
:103E9800BAFEDFE70121B1402846FFF7B9FED9E7AE
:103EA80038B504460D460846FFF71BFDA04200D072
:103EB80038BD29462046FFF701FD0446FDF754F8B2
:103EC8002046FDF7ABF800212046FDF755F8EFE74F
:103ED800F8B507460D4616461C46FFF756FF112C47
:103EE80001D00020F8BD16F4006F05D00121A940CB
:103EF8003846FFF788FEF4E70121A9403846FFF766
:103F080087FEEEE700B50368136001E0083313602D
:103F1800136890F804C0D0F800E00EEBCC0C6345B1
:103F280005D293F805C08C45F0D1002001E06FF070
:103F380001005DF804FBF8B506460F460024254647
:103F480015E002F01F01102920D011291CD0530AB6
:103F58001B0103F4F873C2F3431002F01F02294651
:103F68001843FDF74DFB002813DB0134E4B2BC42D3
:103F78000ED206EBC40356F8342012F0100FE0D12D
:103F88005D6845F02005E2E75D68E0E73025DEE79B
:103F98000020F8BD43681868C1F34B1301F01F01F6
:103FA800C05801238B40184214BF0123002313700B
:103FB8000020704710B443681C68C1F34B1001F02F
:103FC8001F01235801228A4013432350002010BCAC
:103FD800704710B443681C68C1F34B1001F01F010F
:103FE800235801228A4023EA02032350002010BCF0
:103FF800704738B504460D46FFF7DCFF29462046D2
:10400800FFF7E7FF002038BD08B58368DB680BB110
:10401800984708BD6FF05700FBE730B583B0436899
:104028001C680269E1B10D461068D9688368DB68CD
:104038009BB101AA984700280DDB236823F40043AD
:104048002360019B03EB5503B3FBF5F30F2B0AD950
:104058009BB2E360002003B030BD6FF05700FAE771
:104068006FF01500F7E76FF01500F4E7436829B122
:104078001A68936843F48043936070471A6893689A
:1040880023F4804393607047B0F5805F07D0B0F1A8
:10409800805F07D109B1012070470220704721B91C
:1040A8000420704719B90320704703207047022085
:1040B80070472DE9F04104460D46476803695E687C
:1040C8000979012914D0022915D14FF480636A793E
:1040D800012A15D0022A15D07AB14FF40052A879D6
:1040E800022812D0042816D0002968D1002014E034
:1040F8004FF4C063EBE70023E9E74FF48052EEE7A3
:104108000022ECE74FF44052E9E709B1002004E04F
:104118004FF0805001E04FF48050E979012951D0E7
:104128004FF0000C032914BF00210121AE424CD0EE
:10413800D7F80080D8F8007007F4C06E734506D031
:10414800D8F8007027F4C0673B43C8F800306368AC
:104158001F687B6803F440539A4204D07B6823F4B9
:10416800405313437B6063681A68136803F0102395
:10417800984204D0136823F0102318431060636832
:104188001A68936803F440739C4505D0936823F438
:1041980040734CEA0303936063681B689B6813F4DD
:1041A800804300D00123003B18BF012399422AD144
:1041B8002968336899422AD10020BDE8F0814FF47C
:1041C8008050AAE74FF4407CACE73E68316821F0A4
:1041D800805121F4B051034319433160736823F4CB
:1041E80040531343736063681A68936823F44073F9
:1041F8004CEA0303936029682046FFF70EFF002866
:10420800DBDB0020D9E72046FFF730FFD0E7204668
:10421800FFF703FF0028D0DB2B6833600020CCE7D2
:1042280038B504460D4603695B681B680B60436834
:104238001B681B6803F4C063B3F5806F31D0B3F516
:10424800C06F30D101232B7163681B685B6803F46E
:104258004053B3F5805F2AD0B3F5405F29D023B32C
:1042680003236B7163681B681868196801F4C061DF
:1042780000F01020FFF708FFA87163681B689B68AF
:1042880003F44073B3F5407F15D00023EB716368E6
:104298001B689B6813F4804F01D00323EB71002047
:1042A80038BD0223CFE70023CDE70123D9E7002358
:1042B800D7E70223D5E70123E8E708B5436818687C
:1042C800C36913F0080F01D008230362C36913F010
:1042D800200F02D09047002008BD4FF0FF30FBE7C9
:1042E80010B543681868C36913F0800FFBD0EFF36B
:1042F8001184102383F31288BFF36F8FC36913F0FF
:10430800800F04D184F31188BFF36F8FEBE79047D8
:1043180084F31188BFF36F8F10BD838C0B707047C7
:10432800C9B20185704743681B68D86910F0080056
:1043380000D00120DA6912F0010F01D040F002002C
:10434800DA6912F0020F01D040F00400DA6912F0C5
:10435800040F01D040F02000DA6912F4807F01D008
:1043680040F0080010F0080F02D04FF480721A6273
:1043780010F0010F01D008221A6210F0020F01D0CC
:1043880001221A6210F0040F01D002221A6210F002
:10439800200F01D004221A6270472DE9F843154610
:1043A80042681768FA6912F0800F1DD00E469846C9
:1043B800EFF31189102383F31288BFF36F8F002462
:1043C8002B1B002B09DDFB6913F0800F05D022465B
:1043D80031463846C0470134F2E789F31188BFF304
:1043E8006F8F2046BDE8F8830024FAE78B5C0385CD
:1043F80070472DE9F041884616461F4643681D68F8
:104408000024331B002B0FDDEB6913F0200F0BD0BA
:10441800224641462846B8470134EB6913F0080F95
:10442800EFD008232B62ECE72046BDE8F081838CAF
:104438008B54704743681A6852E8003F43F04003C2
:1044480042E800310029F7D1704743681A6852E8FA
:10445800003F23F0400342E800310029F7D17047BC
:1044680043681B68DA6912F0800F05D01B6813F0E7
:10447800400F03D00120704700207047002070478C
:1044880043681B68D86910F0400000D001207047CD
:1044980043681A6852E8003F43F0200342E80031BD
:1044A8000029F7D1704743681A6852E8003F23F0A3
:1044B800200342E800310029F7D1704743681B68A0
:1044C800D86910F0200000D00120704743681B68AD
:1044D800DA6912F0200F03D01A6812F0200F09D100
:1044E800DA6912F0400F07D01B6813F0400F05D1AE
:1044F8000020704701207047002070470120704756
:104508000120704703699960DA60704708B502694D
:1045180093680BB1D168984708BD00B583B001AA6C
:10452800FFF7F0FC002805DB019B002219791868C9
:10453800FFF701FD03B05DF804FB38B50446456894
:10454800FDF7E4F900280EDB0021286AFFF7E5FFF4
:10455800002808DB2046FDF7F1F9002803DB6B6A29
:1045680020469847002038BD08B50022114625206E
:10457800FEF7FBFF2520FEF7F3FF08BD38B513460D
:104588008568046912F4801F07D012F4402F04D004
:1045980012F0010F01D082F4402323F4801213F0AB
:1045A800010F0AD023684FF0010C0CFA01FC43EA12
:1045B8000C0323602B68984738BD23684FF0010C23
:1045C8000CFA01FC23EA0C032360F3E708B5034661
:1045D8008C4600681979DA8842EA0C02FFF7CEFFA8
:1045E80008BD08B532B1012303FA01F18368DB681D
:1045F800984708BD012303FA01F183681B699847AE
:10460800F7E710B503691C6801238B401C4202D0F0
:10461800B2FA82F25209FFF7E4FF10BD08B503466B
:1046280000681B790121994083685B69984708BD38
:1046380008B5436B5868FFF7F1FF08BD10B582B0A5
:104648004468006969B18B0F8A00521843F100036E
:1046580092185B4100920193FEF724FC002002B0FF
:1046680010BD00F06BFA002221792068FFF7C9FF1E
:10467800F5E738B513468568046912F4801F07D03A
:1046880012F4402F04D012F0010F01D082F440231D
:1046980023F4801213F0010F0AD023684FF0010CA5
:1046A8000CFA01FC43EA0C0323602B68984738BDD9
:1046B80023684FF0010C0CFA01FC23EA0C03236079
:1046C800F3E708B503468C4600681979DA8842EAA8
:1046D8000C02FFF7CEFF08BD38B50C4605698368A4
:1046E8005B68984718B923682A685340236038BD27
:1046F80010B582B00C4601A9FFF7EEFF30B90123CF
:10470800A340019A134214BF0120002002B010BD3B
:1047180010B54368046919791868FFF7E9FF206044
:10472800002010BD03690F2903D11B681360002006
:1047380070476FF08500704710B54468206800F036
:1047480026F840B14FF480312046FFF7BAFF002821
:1047580000DB002010BD6FF01200FBE710B5044627
:10476800436993B19847024630B100280BDBFF2A12
:1047780000DDFF22E3681A70E1684B7843F001031B
:104788004B70504210BD4242F1E70022F4E760B19D
:10479800C3685A7812F0010F03D01B781BB10020B0
:1047A8007047002070470120704700207047EFF3E2
:1047B8001183102383F31288BFF36F8FFEE708B5C8
:1047C800FFF7F5FF08B5EFF31183102383F3128881
:1047D800BFF36F8FFEF7DFFEF5E700BF7047F8B550
:1047E8000546D31D23F007037F3323F03F0301F170
:1047F8004007A3F140063F2B07D8002282F3118817
:10480800BFF36F8F0422104602DFCC1821462846DA
:10481800FBF748FE073020F00700C5F89470C5F88C
:104828009860C5F89C00201AF8BD10B40024846074
:10483800037342738173C4738461C46110BC70478D
:104848000020704738B504460D46FDF759FD637BD7
:1048580043F00203637335B3A5602B689D420DD105
:1048680000230BE05A686260236014605C601AE001
:104878001A4669688A420FD01B687BB173B194F9F4
:104888000E1093F90E209142F2D0521A002AE9DC58
:104898001A46002BEDD1F0E70023EEE76B682560A0
:1048A80063601C606C6038BD08B5183000F0F8F81B
:1048B80008BD70B50646046884421AD0DCB1626847
:1048C800236813605A60002525606560637B23F0C8
:1048D80002036373A56004F1180000F0E1F8C4F85E
:1048E800AC502046FDF7B2FC3468A642E6D12C460F
:1048F800E4E70024E2E770BD38B504460023EFF38F
:104908001185102282F31288BFF36F8F04E085F3BC
:104918001188BFF36F8F012343B92046FFF790FF3B
:104928000028F4D12046FDF791FCF0E738BD0023BC
:10493800EFF31181102282F31288BFF36F8F10E01A
:104948004268036813605A60002303604360427B37
:1049580022F002024273836081F31188BFF36F8FE4
:1049680001231BB98368002BEAD1F5E7704738B5F6
:1049780004460023EFF31185102282F31288BFF357
:104988006F8F0BE0637B23F0040363732046FDF70E
:104998005DFC85F31188BFF36F8F01239BB9637B9F
:1049A80013F0280FF5D1A368002BEBD062682368B9
:1049B80013605A60002323606360627B22F0020266
:1049C8006273A360DEE738BD08B501211838FFF728
:1049D800CEFF08BD01460023EFF3118C102282F3AD
:1049E8001288BFF36F8F184605E000208CF31188FA
:1049F800BFF36F8F01238BB908688142F5D0002877
:104A0800F4D04268036813605A600023036043606F
:104A1800427B22F0020242738360E7E7704708B5E1
:104A2800EFF31180102383F31288BFF36F8FFDF724
:104A3800A1FD08BD031D43608360704710B504469F
:104A4800FEF76EF848B102460369416920691B18F0
:104A5800606941EB0001136151616268236813606A
:104A68005A6000232360636010BD10B50446FEF74A
:104A78004DF878B1036942691B1B62EBE472B3F12C
:104A8800004F72F1000108DA002A01DB184610BD58
:104A98000023FBE76FF00040F9E76FF00040F6E70E
:104AA800F8B504460023EFF31187102282F3128829
:104AB800BFF36F8F6FF015000CE0FEF73DF8FFF7BE
:104AC800D4FF0021FDF73AF8304687F31188BFF389
:104AD8006F8F01231E468BB92368002BF5D0FEF794
:104AE80015F805462046FFF7A9FF00224FF00043BE
:104AF800C4E90423A542E0D03046E6E7F8BD08B58E
:104B0800FEF722F908BD08B5FEF71EF908BD08B57D
:104B1800EFF31180102383F31288BFF36F8FFDF733
:104B280029FD08BD016242620023036300F11802F7
:104B38008261C261036043604363704710B50446F5
:104B4800FFF7AEFF60B9636A0BB12046984704F1DE
:104B58001800FFF73FFF18B1FFF7CEFEFFF7D7FFAA
:104B680010BD0A44914200F1FF3300D1704710B5DF
:104B780011F8014B03F8014F9142F9D110BD0244DD
:104B88000346934200D1704703F8011BF9E710B5BB
:104B98000139044632B111F8013F00F8013B013AEE
:104BA800002BF7D10021FFF7EAFF204610BD10B512
:104BB800024601448A42134603D01C780132002C75
:104BC800F8D1181A10BDF0B5C3F137070446FFB283
:104BD80003F01F031046082BE6B233D0102B3ED04B
:104BE8006508A40844EA817445EAC1752D194FEA9D
:104BF800910242EB5102290941EA02716D1842EB18
:104C08001212290A41EA02616D1842EB1222290C9C
:104C180041EA02416D1842EB1242AD1842F100021E
:104C2800EC0844EA4274D10804EB8402A6EB42057E
:104C3800EDB2092D0CD90134A5F10A0541F10001A5
:104C4800EDB212E0E40844EA417406F00705C90829
:104C5800303554EA010200F8015BBCD1F0BD2409EB
:104C680044EA017406F00F050909092D84BFED19FE
:104C7800EDB2EDE70148006870470000E802002047
:104C880000000000204D0008C102000800000000DC
:104C980000000000404D000800000000404E0008E1
:104CA80000000000204E000800000000004E000830
:104CB80000000000E04D000800000000604D000802
:104CC80000000000604E000800000000C04D000811
:104CD80000000000A04D000800000000804D000802
:104CE800333800080000000000000000804E000873
:104CF800E514000800000000A51A000800000000E4
:104D0800510E00080000000000000000A04E00083E
:084D180000000000C04E00087D
:104D2000A857000800000000C45100084E000020F1
:104D300000000000C1130008000000000000000097
:104D400040590008545900089451000860000020A0
:104D50000000000000000000000000000000000053
:104D60008857000800000000000000004C000020F0
:104D700000000000053900080000000000000000ED
:104D8000B85700083858000870510008500000203B
:104D900088030020D115000800000000000000007A
:104DA000C85700084C5800087051000852000020F5
:104DB0009C030020D1150008000000000000000046
:104DC000D8570008605800087051000854000020AF
:104DD000B0030020D1150008000000000000000012
:104DE000E857000874580008705100085600002069
:104DF000C4030020D11500080000000000000000DE
:104E0000F857000888580008705100085800002022
:104E1000D8030020D11500080000000000000000A9
:104E2000085800089C580008705100085A000020DB
:104E3000EC030020D1150008000000000000000075
:104E400018580008B0580008705100085C00002095
:104E500000040020D1150008000000000000000040
:104E600028580008C4580008705100085E0000204F
:104E700014040020D115000800000000000000000C
:104E80005859000868590008E051000862000020E5
:104E9000240000204345000800000000000000003E
:104EA000B8590008C4590008C05100086400002027
:104EB00078000020A91C000800000000000000008D
:104EC000D0590008E0590008A451000866000020ED
:104ED00030040020414700080000000000000000EE
:104EE000000000007F350008000000007F3500084A
:104EF000000000007F350008000000007F3500083A
:104F0000000000007F350008000000007F35000829
:104F100084570008990E000880570008990E000871
:104F20007C570008990E000878570008990E000871
:104F300074570008990E0008000000007F35000833
:104F4000000000007F350008000000007F350008E9
:104F5000000000007F350008000000007F350008D9
:104F6000000000007F350008000000007F350008C9
:104F7000000000007F350008000000007F350008B9
:104F8000000000007F350008000000007F350008A9
:104F9000000000007F35000870570008990E0008D7
:104FA000000000007F350008000000007F35000889
:104FB000000000007F350008000000007F35000879
:104FC000000000007F350008000000007F35000869
:104FD000000000007F350008000000007F35000859
:104FE000000000007F350008000000007F35000849
:104FF000000000007F350008000000007F35000839
:10500000000000007F350008804E000815450008AC
:10501000000000007F350008000000007F35000818
:105020006C570008990E0008000000007F3500084A
:10503000000000007F350008000000007F350008F8
:10504000000000007F350008000000007F350008E8
:10505000000000007F350008000000007F350008D8
:10506000000000007F350008000000007F350008C8
:10507000000000007F350008000000007F350008B8
:10508000000000007F350008000000007F350008A8
:10509000000000007F350008000000007F35000898
:1050A000000000007F350008000000007F35000888
:1050B000000000007F350008000000007F35000878
:1050C000000000007F350008000000007F35000868
:1050D000000000007F350008000000007F35000858
:1050E000000000007F350008000000007F35000848
:1050F000000000007F350008000000007F35000838
:10510000000000007F350008000000007F35000827
:10511000000000007F350008000000007F35000817
:10512000000000007F350008000000007F35000807
:10513000000000007F350008000000007F350008F7
:10514000000000007F350008000000007F350008E7
:10515000000000007F350008000000007F350008D7
:10516000000000007F350008000000007F350008C7
:10517000113E0008F13B0008FD3B00080F3C000811
:10518000193C0008233C00083D150008313C00088C
:04519000000000001B
:105194009D3F0008BD3F0008DB3F0008FB3F0008BF
:1051A4000000000000000000000000001947000893
:0C51B4002D470008000000000000000073
:0451C0004546000858
:1051C4002139000865390008000000005511000865
:0C51D400113A000800000000B339000888
:1051E000C5170008D51700082F4300084916000806
:1051F00029420008E51700081D1800083D44000872
:10520000534400086944000899440008AF4400086A
:1052100089440008C544000855180008B51800085E
:0C522000D5440008094500080D450008B1
:10522C00040000000F000000010000000800000056
:10523C002000000060000000700000000D00000065
:10524C000C0000000E000000500000007400000074
:10525C00A8000000FFFFFFFFFFFFFFFFFFFFFFFFA6
:04526C00FFFFFFFF42
:10527000312E302E300000005A657068797220455A
:1052800078616D706C65204170706C6963617469E0
:105290006F6E2025730A00005573652074686520C1
:1052A00073656E736F7220746F206368616E6765DB
:1052B000204C454420626C696E6B696E6720706596
:1052C00072696F640A00000050726F78696D6974CA
:1052D000792064657465637465642C2073657474E7
:1052E000696E67204C454420706572696F64207454
:1052F0006F202575206D730A0000000072302F6149
:10530000313A2020307825303878202072312F61D2
:10531000323A2020307825303878202072322F61C0
:10532000333A20203078253038780A0072332F61E4
:10533000343A2020307825303878207231322F6985
:10534000703A2020307825303878207231342F6C34
:10535000723A20203078253038780A00207870732F
:10536000723A20203078253038780A004661756C12
:1053700074696E6720696E737472756374696F6E99
:10538000206164647265737320287231352F7063F5
:10539000293A203078253038780A0000556E686147
:1053A0006E646C6564204952516E3A2025640A008F
:1053B000535053454C20696E2074687265616420B7
:1053C0006D6F646520646F6573206E6F7420696E05
:1053D000646963617465205053500A002A2A2A2A9E
:1053E0002A20425553204641554C54202A2A2A2A25
:1053F0002A0A00002020537461636B696E67206580
:1054000072726F720A0000002020556E737461631F
:105410006B696E67206572726F720A00202050728D
:1054200065636973652064617461206275732065CA
:1054300072726F720A0000002020424641522041E1
:105440006464726573733A20307825780A0000002E
:105450002020496D707265636973652064617461B1
:1054600020627573206572726F720A002020496E87
:10547000737472756374696F6E20627573206572E0
:10548000726F720A000000002020466C6F61746920
:105490006E672D706F696E74206C617A79207374F9
:1054A00061746520707265736572766174696F6E80
:1054B000206572726F720A002A2A2A2A2A205553FE
:1054C000414745204641554C54202A2A2A2A2A0A77
:1054D0000000000020204469766973696F6E2062C5
:1054E00079207A65726F0A002020556E616C6967B9
:1054F0006E6564206D656D6F72792061636365739D
:10550000730A000020204E6F20636F70726F636516
:1055100073736F7220696E737472756374696F6EE2
:10552000730A00002020496C6C6567616C206C6F09
:105530006164206F66204558435F52455455524E72
:1055400020696E746F2050430A0000002020496CCF
:105550006C6567616C20757365206F662074686583
:1055600020455053520A00002020417474656D702C
:105570007420746F206578656375746520756E643A
:105580006566696E656420696E73747275637469AB
:105590006F6E0A002A2A2A2A2A204465627567202B
:1055A0006D6F6E69746F7220657863657074696F72
:1055B0006E202A2A2A2A2A0A0000000052657365F2
:1055C0007276656420457863657074696F6E202813
:1055D0000000000053707572696F757320696E74F6
:1055E00065727275707420284952512000000000C5
:1055F0002A2A2A2A2A20257320256429202A2A2AB1
:105600002A2A0A002A2A2A2A2A204D5055204641B1
:10561000554C54202A2A2A2A2A0A00002020537492
:1056200061636B696E67206572726F722028636FA9
:105630006E746578742061726561206D6967687445
:10564000206265206E6F742076616C6964290A009F
:10565000202044617461204163636573732056693F
:105660006F6C6174696F6E0A0000000020204D4D60
:1056700046415220416464726573733A2030782544
:10568000780A00002020496E737472756374696F24
:105690006E204163636573732056696F6C61746932
:1056A0006F6E0A002A2A2A2A2A204841524420469C
:1056B00041554C54202A2A2A2A2A0A0020204275C1
:1056C00073206661756C74206F6E20766563746FED
:1056D00072207461626C6520726561640A0000006A
:1056E00020204465627567206576656E740A000047
:1056F00020204661756C7420657363616C61746908
:105700006F6E20287365652062656C6F77290A00CB
:10571000415243485F455843455054207769746867
:1057200020726561736F6E2025780A0A0000000000
:10573000000000200000000000000B060200000036
:1057400054570008464C4153485F30005352414D76
:105750005F300000000000084457000824000206E3
:10576000000000204C57000820000B110A06000022
:105770000505000004010000030100000201000013
:105780000101000000010000696E7465727275709D
:10579000742D636F6E74726F6C6C65724034303050
:1057A00031303430300000007263634034303032C6
:1057B00031303030000000006770696F403438309D
:1057C00030316330300000006770696F403438302A
:1057D00030313830300000006770696F4034383045
:1057E00030313430300000006770696F4034383039
:1057F00030313030300000006770696F403438302D
:1058000030306330300000006770696F40343830EA
:1058100030303830300000006770696F4034383005
:1058200030303430300000006770696F40343830F9
:105830003030303030000000FFFF0000001C004816
:10584000070000004C00000080000000FFFF000087
:1058500000180048060000004C0000004000000056
:10586000FFFF000000140048050000004C0000008D
:1058700020000000FFFF00000010004804000000AE
:105880004C00000010000000FFFF0000000C00486A
:10589000030000004C00000008000000FFFF0000B3
:1058A00000080048020000004C0000000400000056
:1058B000FFFF000000040048010000004C00000051
:1058C00002000000FFFF0000000000480000000090
:1058D0004C00000001000000604E0008404E00082F
:1058E000204E0008004E0008E04D0008C04D0008A2
:1058F000A04D0008804D00080000000000000000DE
:105900000000000000000000000000000000000097
:105910000000000000000000000000000000000087
:105920000000000000000000000000000000000077
:105930000000000000000000000000000000000067
:1059400072657365742D636F6E74726F6C6C6572C3
:10595000000000000010024073657269616C403401
:10596000303031333830300000380140404D0008CD
:105970000E0800009059000801000000000000001F
:105980000000000000000000985900087145000860
:105990006000000000400000A05900080100000065
:1059A000A8590008020000002701000000020000C2
:1059B0004701000000000000626C696E6B2D6C6591
:1059C00064000000404E00080D000000E8030000E5
:1059D0006578616D706C652D73656E736F72000014
:1059E000204E00080D001100A0860100400D0300AC
:1059F000801A060000350C0040420F0080841E0013
:105A000000093D0000127A000024F40000366E0107
:105A10000048E801006CDC0200000000000000000B
:105A2000010203040607080969646C6500000000B0
:105A30006D61696E00000000884C0008884C000809
:105A4000004D0008084D0008204D0008204D0008BA
:105A50002A2A2A20426F6F74696E67205A6570681F
:105A60007972204F53206275696C642076342E332E
:105A70002E30202A2A2A0A00286E756C6C29002AEA
:085A8000666C6F61742A0000DE
:105A8800D134000800000000293800080000000098
:105A980000000000FFFFFFFFFFFFFFFFFFFFFFFF0A
:105AA800FFFFFFFF0000000034000020000000009E
:105AB8000000000000C201000001030000093D00D1
